:020000040800F2
:100000001804002045010008F9030008E702000871
:10001000F50300088D0100086B06000800000000D1
:10002000000000000000000000000000590400086B
:100030009101000800000000FB03000861050008B2
:100040005F0100085F0100085F0100085F01000810
:100050005F0100085F0100085F0100085F01000800
:100060005F0100085F0100085F0100085F010008F0
:100070005F0100085F0100085F0100085F010008E0
:100080005F0100085F0100085F0100085F010008D0
:100090005F0100085F0100085F0100085F010008C0
:1000A0005F0100085F0100085F0100085F010008B0
:1000B0005F0100085F0100085F0100085F010008A0
:1000C0005F0100085F0100085F0100085F01000890
:1000D0005F010008E10500085F0100085F010008FA
:1000E0005F0100085F0100085F0100085F01000870
:1000F0005F0100085F0100085F0100085F01000860
:100100005F0100085F0100085F0100085F0100084F
:100110005F0100085F0100085F0100085F0100083F
:100120005F0100085F0100085F0100085F0100082F
:10013000DFF80CD000F018F8004800478D060008E2
:10014000180400200648804706480047FEE7FEE7FF
:10015000FEE7FEE7FEE7FEE7FEE7FEE7FEE7FEE777
:100160008105000831010008064C074D06E0E068F3
:1001700040F0010394E8070098471034AC42F6D3EE
:10018000FFF7DAFFA8070008C807000800BFFEE76E
:10019000704700004FF0E021096941F007014FF07E
:1001A000E02211610749086000BF0649096800297B
:1001B000FBD14FF0E021096941F006014FF0E02248
:1001C00011617047140000202DE9F041024600251E
:1001D0000026002000230024002791F803C00CF023
:1001E0000F0591F803C00CF0100CBCF1000F03D008
:1001F00091F802C04CEA050591F800C0BCF1000F6F
:1002000031D0146800202BE04FF0010C0CFA00F301
:10021000B1F800C00CEA03069E4220D183004FF0E3
:100220000F0C0CFA03F7BC4305FA03FC4CEA040478
:1002300091F803C0BCF1280F06D14FF0010C0CFA65
:1002400000FCC2F814C00AE091F803C0BCF1480FEA
:1002500005D14FF0010C0CFA00FCC2F810C0401C94
:100260000828D1D31460B1F800C0BCF1FF0F34DD11
:10027000546800202EE000F1080C4FF0010808FA45
:100280000CF3B1F800C00CEA03069E4221D18300B2
:100290004FF00F0C0CFA03F7BC4305FA03FC4CEAD1
:1002A000040491F803C0BCF1280F05D100F1080C3B
:1002B00008FA0CF8C2F8148091F803C0BCF1480F9A
:1002C00007D100F1080C4FF0010808FA0CF8C2F849
:1002D0001080401C0828CED35460BDE8F0814161F5
:1002E00070470161704700BFFEE7000008B50121BB
:1002F000142000F083F81020ADF800008DF8030002
:1003000003208DF8020069463848FFF75DFF102191
:100310003648FFF7E6FF4FF40060ADF8000010200C
:100320008DF8030003208DF8020069462F48FFF77F
:100330004BFF4FF400612D48FFF7D3FF0220ADF8CB
:10034000000010208DF8030003208DF8020069469C
:100350002748FFF739FF02212548FFF7C2FF202079
:10036000ADF8000010208DF8030003208DF8020086
:1003700069461F48FFF728FF20211D48FFF7B1FFFE
:100380004020ADF8000010208DF8030003208DF808
:10039000020069461648FFF717FF40211448FFF78F
:1003A000A0FF8020ADF8000010208DF8030003208E
:1003B0008DF8020069460E48FFF706FF80210C48C1
:1003C000FFF78FFF4FF48070ADF8000010208DF81C
:1003D000030003208DF8020069460548FFF7F4FE8C
:1003E0004FF480710248FFF77CFF08BD0010014008
:1003F0000008014000BFFEE77047704729B1064A78
:1004000092690243044B9A6104E0034A9269824371
:10041000014B9A61704700000010024010B50021A6
:1004200015E000230B4C236000F08002802A03D1EA
:100430000123241D236003E00023064C241D2360B8
:100440004306180E0123034C23604B1CD9B2082924
:10045000E7DB10BD98012142704710B500F002F8AB
:1004600010BD00000CB500200190009033480068DA
:1004700040F480303149086000BF3048006800F423
:10048000003000900198401C0190009818B9019824
:10049000B0F5A06FF1D12948006800F4003010B128
:1004A0000120009001E0002000900098012843D135
:1004B0002348006840F010002149086008460068A1
:1004C00020F0030008600846006840F00200086061
:1004D0001A4840681949486008464068486008461C
:1004E000406840F4806048600846406820F47C1012
:1004F00048600846406840F4E810486008460068D4
:1005000040F08070086000BF0C48006800F0007088
:100510000028F9D00948406820F0030007494860E6
:100520000846406840F00200486000BF0348406849
:1005300000F00C000828F9D10CBD000000100240AA
:100540000020024000204FF0E021886142F2283074
:1005500048610846006940F00600086170470000E5
:1005600000204FF0E02188610448006820B1034872
:100570000068401E01490860704700001400002018
:1005800010B51348006840F00100114908600846A2
:100590004068104908400E494860084600680E4906
:1005A00008400B4908600846006820F48020086075
:1005B0000846406820F4FE0048604FF41F00886041
:1005C000FFF74BFF4FF000600449086010BD0000CA
:1005D000001002400000FFF8FFFFF6FE08ED00E00B
:1005E00010B540F22551064800F00CF838B1044827
:1005F00000F032F8C4B22146014800F032F810BDD4
:100600000038014070B50246002400230025002078
:1006100040F66A16B14200D100BFC1F3421501F0A5
:100620001F03012606FA03F3012D02D196893340F8
:1006300006E0022D02D1168A334001E0968A33404B
:100640000C12012606FA04F41688344013B10CB1DA
:10065000012000E0002070BD01468888C0F308003A
:100660007047C1F308028280704700BFFEE702E0D6
:1006700008C8121F08C1002AFAD17047704700202D
:1006800001E001C1121F002AFBD170470326FFF7CA
:1006900077FFFFF72BFEFFF755FF79E0012E25D1FD
:1006A00010213C48FFF71BFE02213B48FFF717FED5
:1006B000092418E0092513E00120384908600020CA
:1006C0003749C1F8A0013749485DFFF7A7FE354912
:1006D000085DFFF7A3FE42F21070FFF75BFD6D1E91
:1006E000002DE9DA641E002C52DBE3E7022E25D14F
:1006F000B1022848FFF7F3FD20212748FFF7EFFD5F
:10070000092418E0092513E001202449086000208D
:100710002349C1F8A0012349485DFFF77FFE214925
:10072000085DFFF77BFE42F21070FFF733FD6D1E90
:10073000002DE9DA641E002C2ADBE3E7032E01D04A
:10074000042E25D120211448FFF7C9FD102111489E
:10075000FFF7C5FD1349487AFFF760FE1149487A53
:10076000FFF75CFE01200D49086000200C49C1F82C
:10077000A0010C49487AFFF751FE0A49487AFFF771
:100780004DFE01200549086000200549C1F8A0017F
:1007900084E700000010014000080140A001214250
:1007A0000000214200000020C807000800000020CF
:1007B000180000006E060008E0070008180000207E
:1007C000000400007E060008C0CFA4B0999282F811
:1007D00080908883C6A1868EFF7F00000000000005
:0400000508000131BD
:00000001FF
